{"abi":[{"type":"constructor","inputs":[],"stateMutability":"nonpayable"},{"type":"function","name":"addAdmin","inputs":[{"name":"newAdmin","type":"address","internalType":"address"}],"outputs":[],"stateMutability":"nonpayable"},{"type":"function","name":"admins","inputs":[{"name":"","type":"address","internalType":"address"}],"outputs":[{"name":"","type":"bool","internalType":"bool"}],"stateMutability":"view"},{"type":"function","name":"capsules","inputs":[{"name":"","type":"uint256","internalType":"uint256"}],"outputs":[{"name":"cid","type":"string","internalType":"string"},{"name":"createdAt","type":"uint256","internalType":"uint256"},{"name":"updatedAt","type":"uint256","internalType":"uint256"}],"stateMutability":"view"},{"type":"function","name":"createCapsule","inputs":[{"name":"cid","type":"string","internalType":"string"}],"outputs":[{"name":"id","type":"uint256","internalType":"uint256"}],"stateMutability":"nonpayable"},{"type":"function","name":"deployer","inputs":[],"outputs":[{"name":"","type":"address","internalType":"address"}],"stateMutability":"view"},{"type":"function","name":"getCapsule","inputs":[{"name":"id","type":"uint256","internalType":"uint256"}],"outputs":[{"name":"","type":"tuple","internalType":"struct CapsuleRegistry.Capsule","components":[{"name":"cid","type":"string","internalType":"string"},{"name":"createdAt","type":"uint256","internalType":"uint256"},{"name":"updatedAt","type":"uint256","internalType":"uint256"}]}],"stateMutability":"view"},{"type":"function","name":"nextId","inputs":[],"outputs":[{"name":"","type":"uint256","internalType":"uint256"}],"stateMutability":"view"},{"type":"function","name":"updateCapsule","inputs":[{"name":"id","type":"uint256","internalType":"uint256"},{"name":"cid","type":"string","internalType":"string"}],"outputs":[],"stateMutability":"nonpayable"},{"type":"event","name":"AdminAdded","inputs":[{"name":"admin","type":"address","indexed":true,"internalType":"address"}],"anonymous":false},{"type":"event","name":"CapsuleCreated","inputs":[{"name":"id","type":"uint256","indexed":true,"internalType":"uint256"},{"name":"cid","type":"string","indexed":false,"internalType":"string"}],"anonymous":false},{"type":"event","name":"CapsuleUpdated","inputs":[{"name":"id","type":"uint256","indexed":true,"internalType":"uint256"},{"name":"cid","type":"string","indexed":false,"internalType":"string"}],"anonymous":false},{"type":"error","name":"InvalidCapsule","inputs":[]},{"type":"error","name":"NotAdmin","inputs":[]}],"bytecode":{"object":"0x60a060405234801561000f575f5ffd5b503373ffffffffffffffffffffffffffffffffffffffff1660808173ffffffffffffffffffffffffffffffffffffffff168152505060015f5f3373ffffffffffffffffffffffffffffffffffffffff1673ffffffffffffffffffffffffffffffffffffffff1681526020019081526020015f205f6101000a81548160ff0219169083151502179055503373ffffffffffffffffffffffffffffffffffffffff167f44d6d25963f097ad14f29f06854a01f575648a1ef82f30e562ccd3889717e33960405160405180910390a2608051610fda6100f35f395f6107500152610fda5ff3fe608060405234801561000f575f5ffd5b5060043610610086575f3560e01c806361b8ce8c1161005957806361b8ce8c146101385780637048027514610156578063c088926414610172578063d5f39488146101a257610086565b80631d04cc401461008a5780633aac3858146100a6578063429b62e5146100d6578063517bbf4614610106575b5f5ffd5b6100a4600480360381019061009f919061082d565b6101c0565b005b6100c060048036038101906100bb919061088a565b6102f5565b6040516100cd9190610981565b60405180910390f35b6100f060048036038101906100eb91906109fb565b6103fe565b6040516100fd9190610a40565b60405180910390f35b610120600480360381019061011b919061088a565b61041a565b60405161012f93929190610ab0565b60405180910390f35b6101406104c6565b60405161014d9190610aec565b60405180910390f35b610170600480360381019061016b91906109fb565b6104cc565b005b61018c60048036038101906101879190610b05565b6105e5565b6040516101999190610aec565b60405180910390f35b6101aa61074e565b6040516101b79190610b5f565b60405180910390f35b5f5f3373ffffffffffffffffffffffffffffffffffffffff1673ffffffffffffffffffffffffffffffffffffffff1681526020019081526020015f205f9054906101000a900460ff1661023f576040517f7bfa4b9f00000000000000000000000000000000000000000000000000000000815260040160405180910390fd5b600254831061027a576040517f4759f02500000000000000000000000000000000000000000000000000000000815260040160405180910390fd5b818160015f8681526020019081526020015f205f01918261029c929190610dac565b504260015f8581526020019081526020015f2060020181905550827fa6bcbaa2caafe58bb40faae463143ae2aa2f0fb191e6f32c9cad47ab92aff7c183836040516102e8929190610eb3565b60405180910390a2505050565b6102fd610772565b6002548210610338576040517f4759f02500000000000000000000000000000000000000000000000000000000815260040160405180910390fd5b60015f8381526020019081526020015f206040518060600160405290815f8201805461036390610bdc565b80601f016020809104026020016040519081016040528092919081815260200182805461038f90610bdc565b80156103da5780601f106103b1576101008083540402835291602001916103da565b820191905f5260205f20905b8154815290600101906020018083116103bd57829003601f168201915b50505050508152602001600182015481526020016002820154815250509050919050565b5f602052805f5260405f205f915054906101000a900460ff1681565b6001602052805f5260405f205f91509050805f01805461043990610bdc565b80601f016020809104026020016040519081016040528092919081815260200182805461046590610bdc565b80156104b05780601f10610487576101008083540402835291602001916104b0565b820191905f5260205f20905b81548152906001019060200180831161049357829003601f168201915b5050505050908060010154908060020154905083565b60025481565b5f5f3373ffffffffffffffffffffffffffffffffffffffff1673ffffffffffffffffffffffffffffffffffffffff1681526020019081526020015f205f9054906101000a900460ff1661054b576040517f7bfa4b9f00000000000000000000000000000000000000000000000000000000815260040160405180910390fd5b60015f5f8373ffffffffffffffffffffffffffffffffffffffff1673ffffffffffffffffffffffffffffffffffffffff1681526020019081526020015f205f6101000a81548160ff0219169083151502179055508073ffffffffffffffffffffffffffffffffffffffff167f44d6d25963f097ad14f29f06854a01f575648a1ef82f30e562ccd3889717e33960405160405180910390a250565b5f5f5f3373ffffffffffffffffffffffffffffffffffffffff1673ffffffffffffffffffffffffffffffffffffffff1681526020019081526020015f205f9054906101000a900460ff16610665576040517f7bfa4b9f00000000000000000000000000000000000000000000000000000000815260040160405180910390fd5b6002549050604051806060016040528084848080601f0160208091040260200160405190810160405280939291908181526020018383808284375f81840152601f19601f8201169050808301925050505050505081526020014281526020014281525060015f8381526020019081526020015f205f820151815f0190816106ec9190610ed5565b50602082015181600101556040820151816002015590505060018101600281905550807f0f7b1bbb8a14e528035817045db0033898b9c4b47d9e8ed6a8d9ffc064fc16288484604051610740929190610eb3565b60405180910390a292915050565b7f000000000000000000000000000000000000000000000000000000000000000081565b6040518060600160405280606081526020015f81526020015f81525090565b5f5ffd5b5f5ffd5b5f819050919050565b6107ab81610799565b81146107b5575f5ffd5b50565b5f813590506107c6816107a2565b92915050565b5f5ffd5b5f5ffd5b5f5ffd5b5f5f83601f8401126107ed576107ec6107cc565b5b8235905067ffffffffffffffff81111561080a576108096107d0565b5b602083019150836001820283011115610826576108256107d4565b5b9250929050565b5f5f5f6040848603121561084457610843610791565b5b5f610851868287016107b8565b935050602084013567ffffffffffffffff81111561087257610871610795565b5b61087e868287016107d8565b92509250509250925092565b5f6020828403121561089f5761089e610791565b5b5f6108ac848285016107b8565b91505092915050565b5f81519050919050565b5f82825260208201905092915050565b8281835e5f83830152505050565b5f601f19601f8301169050919050565b5f6108f7826108b5565b61090181856108bf565b93506109118185602086016108cf565b61091a816108dd565b840191505092915050565b61092e81610799565b82525050565b5f606083015f8301518482035f86015261094e82826108ed565b91505060208301516109636020860182610925565b5060408301516109766040860182610925565b508091505092915050565b5f6020820190508181035f8301526109998184610934565b905092915050565b5f73ffffffffffffffffffffffffffffffffffffffff82169050919050565b5f6109ca826109a1565b9050919050565b6109da816109c0565b81146109e4575f5ffd5b50565b5f813590506109f5816109d1565b92915050565b5f60208284031215610a1057610a0f610791565b5b5f610a1d848285016109e7565b91505092915050565b5f8115159050919050565b610a3a81610a26565b82525050565b5f602082019050610a535f830184610a31565b92915050565b5f82825260208201905092915050565b5f610a73826108b5565b610a7d8185610a59565b9350610a8d8185602086016108cf565b610a96816108dd565b840191505092915050565b610aaa81610799565b82525050565b5f6060820190508181035f830152610ac88186610a69565b9050610ad76020830185610aa1565b610ae46040830184610aa1565b949350505050565b5f602082019050610aff5f830184610aa1565b92915050565b5f5f60208385031215610b1b57610b1a610791565b5b5f83013567ffffffffffffffff811115610b3857610b37610795565b5b610b44858286016107d8565b92509250509250929050565b610b59816109c0565b82525050565b5f602082019050610b725f830184610b50565b92915050565b5f82905092915050565b7f4e487b71000000000000000000000000000000000000000000000000000000005f52604160045260245ffd5b7f4e487b71000000000000000000000000000000000000000000000000000000005f52602260045260245ffd5b5f6002820490506001821680610bf357607f821691505b602082108103610c0657610c05610baf565b5b50919050565b5f819050815f5260205f209050919050565b5f6020601f8301049050919050565b5f82821b905092915050565b5f60088302610c687fffffffffffffffffffffffffffffffffffffffffffffffffffffffffffffffff82610c2d565b610c728683610c2d565b95508019841693508086168417925050509392505050565b5f819050919050565b5f610cad610ca8610ca384610799565b610c8a565b610799565b9050919050565b5f819050919050565b610cc683610c93565b610cda610cd282610cb4565b848454610c39565b825550505050565b5f5f905090565b610cf1610ce2565b610cfc818484610cbd565b505050565b5b81811015610d1f57610d145f82610ce9565b600181019050610d02565b5050565b601f821115610d6457610d3581610c0c565b610d3e84610c1e565b81016020851015610d4d578190505b610d61610d5985610c1e565b830182610d01565b50505b505050565b5f82821c905092915050565b5f610d845f1984600802610d69565b1980831691505092915050565b5f610d9c8383610d75565b9150826002028217905092915050565b610db68383610b78565b67ffffffffffffffff811115610dcf57610dce610b82565b5b610dd98254610bdc565b610de4828285610d23565b5f601f831160018114610e11575f8415610dff578287013590505b610e098582610d91565b865550610e70565b601f198416610e1f86610c0c565b5f5b82811015610e4657848901358255600182019150602085019450602081019050610e21565b86831015610e635784890135610e5f601f891682610d75565b8355505b6001600288020188555050505b50505050505050565b828183375f83830152505050565b5f610e928385610a59565b9350610e9f838584610e79565b610ea8836108dd565b840190509392505050565b5f6020820190508181035f830152610ecc818486610e87565b90509392505050565b610ede826108b5565b67ffffffffffffffff811115610ef757610ef6610b82565b5b610f018254610bdc565b610f0c828285610d23565b5f60209050601f831160018114610f3d575f8415610f2b578287015190505b610f358582610d91565b865550610f9c565b601f198416610f4b86610c0c565b5f5b82811015610f7257848901518255600182019150602085019450602081019050610f4d565b86831015610f8f5784890151610f8b601f891682610d75565b8355505b6001600288020188555050505b50505050505056fea2646970667358221220ed7d44cf149a1d7de48849e583b76711ad9035f16ec2c7a53152d2b17a04c4d364736f6c634300081e0033","linkReferences":{}},"methodIdentifiers":{"addAdmin(address)":"70480275","admins(address)":"429b62e5","capsules(uint256)":"517bbf46","createCapsule(string)":"c0889264","deployer()":"d5f39488","getCapsule(uint256)":"3aac3858","nextId()":"61b8ce8c","updateCapsule(uint256,string)":"1d04cc40"},"id":16}